{
  "_format": "hh-sol-artifact-1",
  "contractName": "Portfolio",
  "sourceName": "contracts/Portfolio.sol",
  "abi": [
    {
      "inputs": [],
      "stateMutability": "nonpayable",
      "type": "constructor"
    },
    {
      "inputs": [
        {
          "internalType": "string",
          "name": "collegeName",
          "type": "string"
        },
        {
          "internalType": "uint256",
          "name": "startingYear",
          "type": "uint256"
        },
        {
          "internalType": "uint256",
          "name": "endYear",
          "type": "uint256"
        },
        {
          "internalType": "string",
          "name": "degree",
          "type": "string"
        },
        {
          "internalType": "string[]",
          "name": "skillsAcquired",
          "type": "string[]"
        },
        {
          "internalType": "string",
          "name": "description",
          "type": "string"
        }
      ],
      "name": "addEduction",
      "outputs": [],
      "stateMutability": "nonpayable",
      "type": "function"
    },
    {
      "inputs": [
        {
          "internalType": "string",
          "name": "companyName",
          "type": "string"
        },
        {
          "internalType": "string",
          "name": "position",
          "type": "string"
        },
        {
          "internalType": "string",
          "name": "startingTime",
          "type": "string"
        },
        {
          "internalType": "string",
          "name": "endTime",
          "type": "string"
        },
        {
          "internalType": "string[]",
          "name": "knowledgeAcquired",
          "type": "string[]"
        },
        {
          "internalType": "string",
          "name": "description",
          "type": "string"
        }
      ],
      "name": "addExperience",
      "outputs": [],
      "stateMutability": "nonpayable",
      "type": "function"
    },
    {
      "inputs": [
        {
          "internalType": "string",
          "name": "title",
          "type": "string"
        },
        {
          "internalType": "string",
          "name": "githubLink",
          "type": "string"
        },
        {
          "internalType": "string",
          "name": "description",
          "type": "string"
        },
        {
          "internalType": "string",
          "name": "skillsAcquired",
          "type": "string"
        },
        {
          "internalType": "string[]",
          "name": "images",
          "type": "string[]"
        }
      ],
      "name": "addProject",
      "outputs": [],
      "stateMutability": "nonpayable",
      "type": "function"
    },
    {
      "inputs": [],
      "name": "allEductationDetails",
      "outputs": [
        {
          "components": [
            {
              "internalType": "uint256",
              "name": "index",
              "type": "uint256"
            },
            {
              "internalType": "string",
              "name": "collegeName",
              "type": "string"
            },
            {
              "internalType": "uint256",
              "name": "startingYear",
              "type": "uint256"
            },
            {
              "internalType": "uint256",
              "name": "endYear",
              "type": "uint256"
            },
            {
              "internalType": "string",
              "name": "degree",
              "type": "string"
            },
            {
              "internalType": "string[]",
              "name": "skillsAcquired",
              "type": "string[]"
            },
            {
              "internalType": "string",
              "name": "description",
              "type": "string"
            }
          ],
          "internalType": "struct Portfolio.Education[]",
          "name": "",
          "type": "tuple[]"
        }
      ],
      "stateMutability": "view",
      "type": "function"
    },
    {
      "inputs": [],
      "name": "allExperienceDetails",
      "outputs": [
        {
          "components": [
            {
              "internalType": "uint256",
              "name": "index",
              "type": "uint256"
            },
            {
              "internalType": "string",
              "name": "companyName",
              "type": "string"
            },
            {
              "internalType": "string",
              "name": "position",
              "type": "string"
            },
            {
              "internalType": "string",
              "name": "startingTime",
              "type": "string"
            },
            {
              "internalType": "string",
              "name": "endTime",
              "type": "string"
            },
            {
              "internalType": "string[]",
              "name": "knowledgeAcquired",
              "type": "string[]"
            },
            {
              "internalType": "string",
              "name": "description",
              "type": "string"
            }
          ],
          "internalType": "struct Portfolio.Experience[]",
          "name": "",
          "type": "tuple[]"
        }
      ],
      "stateMutability": "view",
      "type": "function"
    },
    {
      "inputs": [],
      "name": "allProjects",
      "outputs": [
        {
          "components": [
            {
              "internalType": "uint256",
              "name": "index",
              "type": "uint256"
            },
            {
              "internalType": "string",
              "name": "title",
              "type": "string"
            },
            {
              "internalType": "string",
              "name": "githubLink",
              "type": "string"
            },
            {
              "internalType": "string",
              "name": "description",
              "type": "string"
            },
            {
              "internalType": "string",
              "name": "skillsAcquired",
              "type": "string"
            },
            {
              "internalType": "string[]",
              "name": "images",
              "type": "string[]"
            }
          ],
          "internalType": "struct Portfolio.Project[]",
          "name": "",
          "type": "tuple[]"
        }
      ],
      "stateMutability": "view",
      "type": "function"
    },
    {
      "inputs": [
        {
          "internalType": "string",
          "name": "_newLink",
          "type": "string"
        }
      ],
      "name": "changeLink",
      "outputs": [],
      "stateMutability": "nonpayable",
      "type": "function"
    },
    {
      "inputs": [
        {
          "internalType": "string",
          "name": "_newProfile",
          "type": "string"
        }
      ],
      "name": "changeProfile",
      "outputs": [],
      "stateMutability": "nonpayable",
      "type": "function"
    },
    {
      "inputs": [
        {
          "internalType": "string",
          "name": "_cid",
          "type": "string"
        }
      ],
      "name": "changeResume",
      "outputs": [],
      "stateMutability": "nonpayable",
      "type": "function"
    },
    {
      "inputs": [
        {
          "internalType": "uint256",
          "name": "amount",
          "type": "uint256"
        }
      ],
      "name": "collectFunds",
      "outputs": [],
      "stateMutability": "nonpayable",
      "type": "function"
    },
    {
      "inputs": [],
      "name": "donate",
      "outputs": [],
      "stateMutability": "payable",
      "type": "function"
    },
    {
      "inputs": [
        {
          "internalType": "uint256",
          "name": "_i",
          "type": "uint256"
        },
        {
          "internalType": "string",
          "name": "collegeName",
          "type": "string"
        },
        {
          "internalType": "uint256",
          "name": "startingYear",
          "type": "uint256"
        },
        {
          "internalType": "uint256",
          "name": "endYear",
          "type": "uint256"
        },
        {
          "internalType": "string",
          "name": "degree",
          "type": "string"
        },
        {
          "internalType": "string[]",
          "name": "skillsAcquired",
          "type": "string[]"
        },
        {
          "internalType": "string",
          "name": "description",
          "type": "string"
        }
      ],
      "name": "editEducation",
      "outputs": [],
      "stateMutability": "nonpayable",
      "type": "function"
    },
    {
      "inputs": [
        {
          "internalType": "uint256",
          "name": "_i",
          "type": "uint256"
        },
        {
          "internalType": "string",
          "name": "companyName",
          "type": "string"
        },
        {
          "internalType": "string",
          "name": "position",
          "type": "string"
        },
        {
          "internalType": "string",
          "name": "startingTime",
          "type": "string"
        },
        {
          "internalType": "string",
          "name": "endTime",
          "type": "string"
        },
        {
          "internalType": "string[]",
          "name": "knowledgeAcquired",
          "type": "string[]"
        },
        {
          "internalType": "string",
          "name": "description",
          "type": "string"
        }
      ],
      "name": "editExperience",
      "outputs": [],
      "stateMutability": "nonpayable",
      "type": "function"
    },
    {
      "inputs": [
        {
          "internalType": "uint256",
          "name": "_i",
          "type": "uint256"
        },
        {
          "internalType": "string",
          "name": "title",
          "type": "string"
        },
        {
          "internalType": "string",
          "name": "githubLink",
          "type": "string"
        },
        {
          "internalType": "string",
          "name": "description",
          "type": "string"
        },
        {
          "internalType": "string",
          "name": "skillsAcquired",
          "type": "string"
        },
        {
          "internalType": "string[]",
          "name": "images",
          "type": "string[]"
        }
      ],
      "name": "editProject",
      "outputs": [],
      "stateMutability": "nonpayable",
      "type": "function"
    },
    {
      "inputs": [
        {
          "internalType": "uint256",
          "name": "",
          "type": "uint256"
        }
      ],
      "name": "educations",
      "outputs": [
        {
          "internalType": "uint256",
          "name": "index",
          "type": "uint256"
        },
        {
          "internalType": "string",
          "name": "collegeName",
          "type": "string"
        },
        {
          "internalType": "uint256",
          "name": "startingYear",
          "type": "uint256"
        },
        {
          "internalType": "uint256",
          "name": "endYear",
          "type": "uint256"
        },
        {
          "internalType": "string",
          "name": "degree",
          "type": "string"
        },
        {
          "internalType": "string",
          "name": "description",
          "type": "string"
        }
      ],
      "stateMutability": "view",
      "type": "function"
    },
    {
      "inputs": [
        {
          "internalType": "uint256",
          "name": "",
          "type": "uint256"
        }
      ],
      "name": "experiences",
      "outputs": [
        {
          "internalType": "uint256",
          "name": "index",
          "type": "uint256"
        },
        {
          "internalType": "string",
          "name": "companyName",
          "type": "string"
        },
        {
          "internalType": "string",
          "name": "position",
          "type": "string"
        },
        {
          "internalType": "string",
          "name": "startingTime",
          "type": "string"
        },
        {
          "internalType": "string",
          "name": "endTime",
          "type": "string"
        },
        {
          "internalType": "string",
          "name": "description",
          "type": "string"
        }
      ],
      "stateMutability": "view",
      "type": "function"
    },
    {
      "inputs": [
        {
          "internalType": "uint256",
          "name": "_i",
          "type": "uint256"
        }
      ],
      "name": "getEducation",
      "outputs": [
        {
          "components": [
            {
              "internalType": "uint256",
              "name": "index",
              "type": "uint256"
            },
            {
              "internalType": "string",
              "name": "collegeName",
              "type": "string"
            },
            {
              "internalType": "uint256",
              "name": "startingYear",
              "type": "uint256"
            },
            {
              "internalType": "uint256",
              "name": "endYear",
              "type": "uint256"
            },
            {
              "internalType": "string",
              "name": "degree",
              "type": "string"
            },
            {
              "internalType": "string[]",
              "name": "skillsAcquired",
              "type": "string[]"
            },
            {
              "internalType": "string",
              "name": "description",
              "type": "string"
            }
          ],
          "internalType": "struct Portfolio.Education",
          "name": "",
          "type": "tuple"
        }
      ],
      "stateMutability": "view",
      "type": "function"
    },
    {
      "inputs": [
        {
          "internalType": "uint256",
          "name": "_i",
          "type": "uint256"
        }
      ],
      "name": "getExperience",
      "outputs": [
        {
          "components": [
            {
              "internalType": "uint256",
              "name": "index",
              "type": "uint256"
            },
            {
              "internalType": "string",
              "name": "companyName",
              "type": "string"
            },
            {
              "internalType": "string",
              "name": "position",
              "type": "string"
            },
            {
              "internalType": "string",
              "name": "startingTime",
              "type": "string"
            },
            {
              "internalType": "string",
              "name": "endTime",
              "type": "string"
            },
            {
              "internalType": "string[]",
              "name": "knowledgeAcquired",
              "type": "string[]"
            },
            {
              "internalType": "string",
              "name": "description",
              "type": "string"
            }
          ],
          "internalType": "struct Portfolio.Experience",
          "name": "",
          "type": "tuple"
        }
      ],
      "stateMutability": "view",
      "type": "function"
    },
    {
      "inputs": [
        {
          "internalType": "uint256",
          "name": "_i",
          "type": "uint256"
        }
      ],
      "name": "getProject",
      "outputs": [
        {
          "components": [
            {
              "internalType": "uint256",
              "name": "index",
              "type": "uint256"
            },
            {
              "internalType": "string",
              "name": "title",
              "type": "string"
            },
            {
              "internalType": "string",
              "name": "githubLink",
              "type": "string"
            },
            {
              "internalType": "string",
              "name": "description",
              "type": "string"
            },
            {
              "internalType": "string",
              "name": "skillsAcquired",
              "type": "string"
            },
            {
              "internalType": "string[]",
              "name": "images",
              "type": "string[]"
            }
          ],
          "internalType": "struct Portfolio.Project",
          "name": "",
          "type": "tuple"
        }
      ],
      "stateMutability": "view",
      "type": "function"
    },
    {
      "inputs": [],
      "name": "imageLink",
      "outputs": [
        {
          "internalType": "string",
          "name": "",
          "type": "string"
        }
      ],
      "stateMutability": "view",
      "type": "function"
    },
    {
      "inputs": [],
      "name": "manager",
      "outputs": [
        {
          "internalType": "address",
          "name": "",
          "type": "address"
        }
      ],
      "stateMutability": "view",
      "type": "function"
    },
    {
      "inputs": [],
      "name": "noOfEducation",
      "outputs": [
        {
          "internalType": "uint256",
          "name": "",
          "type": "uint256"
        }
      ],
      "stateMutability": "view",
      "type": "function"
    },
    {
      "inputs": [],
      "name": "noOfExperience",
      "outputs": [
        {
          "internalType": "uint256",
          "name": "",
          "type": "uint256"
        }
      ],
      "stateMutability": "view",
      "type": "function"
    },
    {
      "inputs": [],
      "name": "noOfProjects",
      "outputs": [
        {
          "internalType": "uint256",
          "name": "",
          "type": "uint256"
        }
      ],
      "stateMutability": "view",
      "type": "function"
    },
    {
      "inputs": [],
      "name": "profile",
      "outputs": [
        {
          "internalType": "string",
          "name": "",
          "type": "string"
        }
      ],
      "stateMutability": "view",
      "type": "function"
    },
    {
      "inputs": [
        {
          "internalType": "uint256",
          "name": "",
          "type": "uint256"
        }
      ],
      "name": "projects",
      "outputs": [
        {
          "internalType": "uint256",
          "name": "index",
          "type": "uint256"
        },
        {
          "internalType": "string",
          "name": "title",
          "type": "string"
        },
        {
          "internalType": "string",
          "name": "githubLink",
          "type": "string"
        },
        {
          "internalType": "string",
          "name": "description",
          "type": "string"
        },
        {
          "internalType": "string",
          "name": "skillsAcquired",
          "type": "string"
        }
      ],
      "stateMutability": "view",
      "type": "function"
    },
    {
      "inputs": [],
      "name": "resumeLink",
      "outputs": [
        {
          "internalType": "string",
          "name": "",
          "type": "string"
        }
      ],
      "stateMutability": "view",
      "type": "function"
    }
  ],
  "bytecode": "0x60e0604052602e60808181529062003b3860a03960069062000022908262000144565b506040518060c00160405280608e815260200162003b66608e91396007906200004c908262000144565b506040518060600160405280602e815260200162003b0a602e913960089062000076908262000144565b503480156200008457600080fd5b50600980546001600160a01b0319163317905562000210565b634e487b7160e01b600052604160045260246000fd5b600181811c90821680620000c857607f821691505b602082108103620000e957634e487b7160e01b600052602260045260246000fd5b50919050565b601f8211156200013f576000816000526020600020601f850160051c810160208610156200011a5750805b601f850160051c820191505b818110156200013b5782815560010162000126565b5050505b505050565b81516001600160401b038111156200016057620001606200009d565b6200017881620001718454620000b3565b84620000ef565b602080601f831160018114620001b05760008415620001975750858301515b600019600386901b1c1916600185901b1785556200013b565b600085815260208120601f198616915b82811015620001e157888601518255948401946001909101908401620001c0565b5085821015620002005787850151600019600388901b60f8161c191681555b5050505050600190811b01905550565b6138ea80620002206000396000f3fe6080604052600436106101ac5760003560e01c80638c347c48116100ec578063caf7b7591161008a578063ed88c68e11610064578063ed88c68e146104d8578063ef2aeba2146104e0578063f0f3f2c814610500578063f96e32f81461052d57600080fd5b8063caf7b7591461045f578063cf3e7c7c14610474578063eaeac631146104a657600080fd5b8063a9c485da116100c6578063a9c485da146103dd578063ab60636c146103fd578063b1ca210614610412578063c95234ab1461043f57600080fd5b80638c347c481461039157806390c5e2b3146103a75780639191b942146103c757600080fd5b806344cde30711610159578063597e473411610133578063597e47341461030d5780635cea6a7c1461032d57806360cecb871461034f5780638af4f98d1461036f57600080fd5b806344cde30714610295578063481c6a75146102b5578063482b390f146102ed57600080fd5b8063314c1e251161018a578063314c1e251461022f57806336eea422146102535780633bbcca6f1461027557600080fd5b8063107046bd146101b15780631f7155aa146101eb5780632adf13b21461020d575b600080fd5b3480156101bd57600080fd5b506101d16101cc366004612ca3565b61055a565b6040516101e2959493929190612d02565b60405180910390f35b3480156101f757600080fd5b5061020b610206366004612e18565b6107bc565b005b34801561021957600080fd5b50610222610837565b6040516101e29190612f3e565b34801561023b57600080fd5b5061024560015481565b6040519081526020016101e2565b34801561025f57600080fd5b50610268610bc1565b6040516101e29190613042565b34801561028157600080fd5b5061020b61029036600461312c565b610fd4565b3480156102a157600080fd5b5061020b6102b0366004612e18565b611113565b3480156102c157600080fd5b506009546102d5906001600160a01b031681565b6040516001600160a01b0390911681526020016101e2565b3480156102f957600080fd5b5061020b610308366004612e18565b611185565b34801561031957600080fd5b5061020b610328366004612ca3565b6111f7565b34801561033957600080fd5b5061034261130d565b6040516101e29190613206565b34801561035b57600080fd5b5061020b61036a366004613220565b61139b565b34801561037b57600080fd5b5061038461151b565b6040516101e2919061333e565b34801561039d57600080fd5b5061024560005481565b3480156103b357600080fd5b5061020b6103c2366004613395565b61181e565b3480156103d357600080fd5b5061024560025481565b3480156103e957600080fd5b5061020b6103f8366004613447565b6119a4565b34801561040957600080fd5b50610342611aff565b34801561041e57600080fd5b5061043261042d366004612ca3565b611b0c565b6040516101e29190613547565b34801561044b57600080fd5b5061020b61045a36600461355a565b611f3c565b34801561046b57600080fd5b50610342612043565b34801561048057600080fd5b5061049461048f366004612ca3565b612050565b6040516101e2969594939291906135c4565b3480156104b257600080fd5b506104c66104c1366004612ca3565b612340565b6040516101e296959493929190613638565b61020b61240f565b3480156104ec57600080fd5b5061020b6104fb36600461366f565b61243e565b34801561050c57600080fd5b5061052061051b366004612ca3565b6125d1565b6040516101e29190613706565b34801561053957600080fd5b5061054d610548366004612ca3565b612967565b6040516101e29190613719565b6004818154811061056a57600080fd5b6000918252602090912060069091020180546001820180549193509061058f9061372c565b80601f01602080910402602001604051908101604052809291908181526020018280546105bb9061372c565b80156106085780601f106105dd57610100808354040283529160200191610608565b820191906000526020600020905b8154815290600101906020018083116105eb57829003601f168201915b50505050509080600201805461061d9061372c565b80601f01602080910402602001604051908101604052809291908181526020018280546106499061372c565b80156106965780601f1061066b57610100808354040283529160200191610696565b820191906000526020600020905b81548152906001019060200180831161067957829003601f168201915b5050505050908060030180546106ab9061372c565b80601f01602080910402602001604051908101604052809291908181526020018280546106d79061372c565b80156107245780601f106106f957610100808354040283529160200191610724565b820191906000526020600020905b81548152906001019060200180831161070757829003601f168201915b5050505050908060040180546107399061372c565b80601f01602080910402602001604051908101604052809291908181526020018280546107659061372c565b80156107b25780601f10610787576101008083540402835291602001916107b2565b820191906000526020600020905b81548152906001019060200180831161079557829003601f168201915b5050505050905085565b6009546001600160a01b031633146108275760405162461bcd60e51b815260206004820152602360248201527f4f6e6c79206d616e616765722063616e2063616c6c20746869732066756e637460448201526234b7b760e91b60648201526084015b60405180910390fd5b600861083382826137b7565b5050565b60606004805480602002602001604051908101604052809291908181526020016000905b82821015610bb857838290600052602060002090600602016040518060c0016040529081600082015481526020016001820180546108989061372c565b80601f01602080910402602001604051908101604052809291908181526020018280546108c49061372c565b80156109115780601f106108e657610100808354040283529160200191610911565b820191906000526020600020905b8154815290600101906020018083116108f457829003601f168201915b5050505050815260200160028201805461092a9061372c565b80601f01602080910402602001604051908101604052809291908181526020018280546109569061372c565b80156109a35780601f10610978576101008083540402835291602001916109a3565b820191906000526020600020905b81548152906001019060200180831161098657829003601f168201915b505050505081526020016003820180546109bc9061372c565b80601f01602080910402602001604051908101604052809291908181526020018280546109e89061372c565b8015610a355780601f10610a0a57610100808354040283529160200191610a35565b820191906000526020600020905b815481529060010190602001808311610a1857829003601f168201915b50505050508152602001600482018054610a4e9061372c565b80601f0160208091040260200160405190810160405280929190818152602001828054610a7a9061372c565b8015610ac75780601f10610a9c57610100808354040283529160200191610ac7565b820191906000526020600020905b815481529060010190602001808311610aaa57829003601f168201915b5050505050815260200160058201805480602002602001604051908101604052809291908181526020016000905b82821015610ba1578382906000526020600020018054610b149061372c565b80601f0160208091040260200160405190810160405280929190818152602001828054610b409061372c565b8015610b8d5780601f10610b6257610100808354040283529160200191610b8d565b820191906000526020600020905b815481529060010190602001808311610b7057829003601f168201915b505050505081526020019060010190610af5565b50505050815250508152602001906001019061085b565b50505050905090565b60606003805480602002602001604051908101604052809291908181526020016000905b82821015610bb857838290600052602060002090600702016040518060e001604052908160008201548152602001600182018054610c229061372c565b80601f0160208091040260200160405190810160405280929190818152602001828054610c4e9061372c565b8015610c9b5780601f10610c7057610100808354040283529160200191610c9b565b820191906000526020600020905b815481529060010190602001808311610c7e57829003601f168201915b50505050508152602001600282018054610cb49061372c565b80601f0160208091040260200160405190810160405280929190818152602001828054610ce09061372c565b8015610d2d5780601f10610d0257610100808354040283529160200191610d2d565b820191906000526020600020905b815481529060010190602001808311610d1057829003601f168201915b50505050508152602001600382018054610d469061372c565b80601f0160208091040260200160405190810160405280929190818152602001828054610d729061372c565b8015610dbf5780601f10610d9457610100808354040283529160200191610dbf565b820191906000526020600020905b815481529060010190602001808311610da257829003601f168201915b50505050508152602001600482018054610dd89061372c565b80601f0160208091040260200160405190810160405280929190818152602001828054610e049061372c565b8015610e515780601f10610e2657610100808354040283529160200191610e51565b820191906000526020600020905b815481529060010190602001808311610e3457829003601f168201915b5050505050815260200160058201805480602002602001604051908101604052809291908181526020016000905b82821015610f2b578382906000526020600020018054610e9e9061372c565b80601f0160208091040260200160405190810160405280929190818152602001828054610eca9061372c565b8015610f175780601f10610eec57610100808354040283529160200191610f17565b820191906000526020600020905b815481529060010190602001808311610efa57829003601f168201915b505050505081526020019060010190610e7f565b505050508152602001600682018054610f439061372c565b80601f0160208091040260200160405190810160405280929190818152602001828054610f6f9061372c565b8015610fbc5780601f10610f9157610100808354040283529160200191610fbc565b820191906000526020600020905b815481529060010190602001808311610f9f57829003601f168201915b50505050508152505081526020019060010190610be5565b6009546001600160a01b0316331461103a5760405162461bcd60e51b815260206004820152602360248201527f4f6e6c79206d616e616765722063616e2063616c6c20746869732066756e637460448201526234b7b760e91b606482015260840161081e565b60006040518060c00160405280888152602001878152602001868152602001858152602001848152602001838152509050806004888154811061107f5761107f613877565b90600052602060002090600602016000820151816000015560208201518160010190816110ac91906137b7565b50604082015160028201906110c190826137b7565b50606082015160038201906110d690826137b7565b50608082015160048201906110eb90826137b7565b5060a08201518051611107916005840191602090910190612be6565b50505050505050505050565b6009546001600160a01b031633146111795760405162461bcd60e51b815260206004820152602360248201527f4f6e6c79206d616e616765722063616e2063616c6c20746869732066756e637460448201526234b7b760e91b606482015260840161081e565b600661083382826137b7565b6009546001600160a01b031633146111eb5760405162461bcd60e51b815260206004820152602360248201527f4f6e6c79206d616e616765722063616e2063616c6c20746869732066756e637460448201526234b7b760e91b606482015260840161081e565b600761083382826137b7565b6009546001600160a01b0316331461125d5760405162461bcd60e51b815260206004820152602360248201527f4f6e6c79206d616e616765722063616e2063616c6c20746869732066756e637460448201526234b7b760e91b606482015260840161081e565b804710156112d35760405162461bcd60e51b815260206004820152602260248201527f4e6f7420656e6f7567682062616c616e636520696e2074686520636f6e74726160448201527f6374000000000000000000000000000000000000000000000000000000000000606482015260840161081e565b6009546040516001600160a01b039091169082156108fc029083906000818181858888f19350505050158015610833573d6000803e3d6000fd5b6008805461131a9061372c565b80601f01602080910402602001604051908101604052809291908181526020018280546113469061372c565b80156113935780601f1061136857610100808354040283529160200191611393565b820191906000526020600020905b81548152906001019060200180831161137657829003601f168201915b505050505081565b6009546001600160a01b031633146114015760405162461bcd60e51b815260206004820152602360248201527f4f6e6c79206d616e616765722063616e2063616c6c20746869732066756e637460448201526234b7b760e91b606482015260840161081e565b6040805160c08101825260018054825260208201888152928201879052606082018690526080820185905260a08201849052600480549182018155600052815160069091027f8a35acfbc15ff81a39ae7d344fd709f28e8600b4aa8c65c6b64bfe7fe36bd19b81019182559251919290917f8a35acfbc15ff81a39ae7d344fd709f28e8600b4aa8c65c6b64bfe7fe36bd19c909101906114a190826137b7565b50604082015160028201906114b690826137b7565b50606082015160038201906114cb90826137b7565b50608082015160048201906114e090826137b7565b5060a082015180516114fc916005840191602090910190612be6565b5050600180549150600061150f8361388d565b91905055505050505050565b60606005805480602002602001604051908101604052809291908181526020016000905b82821015610bb857838290600052602060002090600702016040518060e00160405290816000820154815260200160018201805461157c9061372c565b80601f01602080910402602001604051908101604052809291908181526020018280546115a89061372c565b80156115f55780601f106115ca576101008083540402835291602001916115f5565b820191906000526020600020905b8154815290600101906020018083116115d857829003601f168201915b5050505050815260200160028201548152602001600382015481526020016004820180546116229061372c565b80601f016020809104026020016040519081016040528092919081815260200182805461164e9061372c565b801561169b5780601f106116705761010080835404028352916020019161169b565b820191906000526020600020905b81548152906001019060200180831161167e57829003601f168201915b5050505050815260200160058201805480602002602001604051908101604052809291908181526020016000905b828210156117755783829060005260206000200180546116e89061372c565b80601f01602080910402602001604051908101604052809291908181526020018280546117149061372c565b80156117615780601f1061173657610100808354040283529160200191611761565b820191906000526020600020905b81548152906001019060200180831161174457829003601f168201915b5050505050815260200190600101906116c9565b50505050815260200160068201805461178d9061372c565b80601f01602080910402602001604051908101604052809291908181526020018280546117b99061372c565b80156118065780601f106117db57610100808354040283529160200191611806565b820191906000526020600020905b8154815290600101906020018083116117e957829003601f168201915b5050505050815250508152602001906001019061153f565b6009546001600160a01b031633146118845760405162461bcd60e51b815260206004820152602360248201527f4f6e6c79206d616e616765722063616e2063616c6c20746869732066756e637460448201526234b7b760e91b606482015260840161081e565b6040805160e08101825260008054825260208201898152928201889052606082018790526080820186905260a0820185905260c08201849052600580546001810182559152815160079091027f036b6384b5eca791c62761152d0c79bb0604c104a5fb6f4eb0703f3154bb3db081019182559251919290917f036b6384b5eca791c62761152d0c79bb0604c104a5fb6f4eb0703f3154bb3db19091019061192b90826137b7565b5060408201516002820155606082015160038201556080820151600482019061195490826137b7565b5060a08201518051611970916005840191602090910190612be6565b5060c0820151600682019061198590826137b7565b5050600080549150806119978361388d565b9190505550505050505050565b6009546001600160a01b03163314611a0a5760405162461bcd60e51b815260206004820152602360248201527f4f6e6c79206d616e616765722063616e2063616c6c20746869732066756e637460448201526234b7b760e91b606482015260840161081e565b60006040518060e001604052808981526020018881526020018781526020018681526020018581526020018481526020018381525090508060038981548110611a5557611a55613877565b9060005260206000209060070201600082015181600001556020820151816001019081611a8291906137b7565b5060408201516002820190611a9790826137b7565b5060608201516003820190611aac90826137b7565b5060808201516004820190611ac190826137b7565b5060a08201518051611add916005840191602090910190612be6565b5060c08201516006820190611af290826137b7565b5050505050505050505050565b6007805461131a9061372c565b611b4c6040518060e00160405280600081526020016060815260200160608152602001606081526020016060815260200160608152602001606081525090565b60038281548110611b5f57611b5f613877565b90600052602060002090600702016040518060e001604052908160008201548152602001600182018054611b929061372c565b80601f0160208091040260200160405190810160405280929190818152602001828054611bbe9061372c565b8015611c0b5780601f10611be057610100808354040283529160200191611c0b565b820191906000526020600020905b815481529060010190602001808311611bee57829003601f168201915b50505050508152602001600282018054611c249061372c565b80601f0160208091040260200160405190810160405280929190818152602001828054611c509061372c565b8015611c9d5780601f10611c7257610100808354040283529160200191611c9d565b820191906000526020600020905b815481529060010190602001808311611c8057829003601f168201915b50505050508152602001600382018054611cb69061372c565b80601f0160208091040260200160405190810160405280929190818152602001828054611ce29061372c565b8015611d2f5780601f10611d0457610100808354040283529160200191611d2f565b820191906000526020600020905b815481529060010190602001808311611d1257829003601f168201915b50505050508152602001600482018054611d489061372c565b80601f0160208091040260200160405190810160405280929190818152602001828054611d749061372c565b8015611dc15780601f10611d9657610100808354040283529160200191611dc1565b820191906000526020600020905b815481529060010190602001808311611da457829003601f168201915b5050505050815260200160058201805480602002602001604051908101604052809291908181526020016000905b82821015611e9b578382906000526020600020018054611e0e9061372c565b80601f0160208091040260200160405190810160405280929190818152602001828054611e3a9061372c565b8015611e875780601f10611e5c57610100808354040283529160200191611e87565b820191906000526020600020905b815481529060010190602001808311611e6a57829003601f168201915b505050505081526020019060010190611def565b505050508152602001600682018054611eb39061372c565b80601f0160208091040260200160405190810160405280929190818152602001828054611edf9061372c565b8015611f2c5780601f10611f0157610100808354040283529160200191611f2c565b820191906000526020600020905b815481529060010190602001808311611f0f57829003601f168201915b5050505050815250509050919050565b6009546001600160a01b03163314611fa25760405162461bcd60e51b815260206004820152602360248201527f4f6e6c79206d616e616765722063616e2063616c6c20746869732066756e637460448201526234b7b760e91b606482015260840161081e565b60006040518060e001604052808981526020018881526020018781526020018681526020018581526020018481526020018381525090508060058981548110611fed57611fed613877565b906000526020600020906007020160008201518160000155602082015181600101908161201a91906137b7565b50604082015160028201556060820151600382015560808201516004820190611ac190826137b7565b6006805461131a9061372c565b6003818154811061206057600080fd5b600091825260209091206007909102018054600182018054919350906120859061372c565b80601f01602080910402602001604051908101604052809291908181526020018280546120b19061372c565b80156120fe5780601f106120d3576101008083540402835291602001916120fe565b820191906000526020600020905b8154815290600101906020018083116120e157829003601f168201915b5050505050908060020180546121139061372c565b80601f016020809104026020016040519081016040528092919081815260200182805461213f9061372c565b801561218c5780601f106121615761010080835404028352916020019161218c565b820191906000526020600020905b81548152906001019060200180831161216f57829003601f168201915b5050505050908060030180546121a19061372c565b80601f01602080910402602001604051908101604052809291908181526020018280546121cd9061372c565b801561221a5780601f106121ef5761010080835404028352916020019161221a565b820191906000526020600020905b8154815290600101906020018083116121fd57829003601f168201915b50505050509080600401805461222f9061372c565b80601f016020809104026020016040519081016040528092919081815260200182805461225b9061372c565b80156122a85780601f1061227d576101008083540402835291602001916122a8565b820191906000526020600020905b81548152906001019060200180831161228b57829003601f168201915b5050505050908060060180546122bd9061372c565b80601f01602080910402602001604051908101604052809291908181526020018280546122e99061372c565b80156123365780601f1061230b57610100808354040283529160200191612336565b820191906000526020600020905b81548152906001019060200180831161231957829003601f168201915b5050505050905086565b6005818154811061235057600080fd5b600091825260209091206007909102018054600182018054919350906123759061372c565b80601f01602080910402602001604051908101604052809291908181526020018280546123a19061372c565b80156123ee5780601f106123c3576101008083540402835291602001916123ee565b820191906000526020600020905b8154815290600101906020018083116123d157829003601f168201915b50505050509080600201549080600301549080600401805461222f9061372c565b60405130903480156108fc02916000818181858888f1935050505015801561243b573d6000803e3d6000fd5b50565b6009546001600160a01b031633146124a45760405162461bcd60e51b815260206004820152602360248201527f4f6e6c79206d616e616765722063616e2063616c6c20746869732066756e637460448201526234b7b760e91b606482015260840161081e565b6040805160e081018252600254815260208101888152918101879052606081018690526080810185905260a0810184905260c0810183905260038054600181018255600091909152815160079091027fc2575a0e9e593c00f959f8c92f12db2869c3395a3b0502d05e2516446f71f85b81019182559251919290917fc2575a0e9e593c00f959f8c92f12db2869c3395a3b0502d05e2516446f71f85c9091019061254e90826137b7565b506040820151600282019061256390826137b7565b506060820151600382019061257890826137b7565b506080820151600482019061258d90826137b7565b5060a082015180516125a9916005840191602090910190612be6565b5060c082015160068201906125be90826137b7565b505060028054915060006119978361388d565b61260a6040518060c001604052806000815260200160608152602001606081526020016060815260200160608152602001606081525090565b6004828154811061261d5761261d613877565b90600052602060002090600602016040518060c0016040529081600082015481526020016001820180546126509061372c565b80601f016020809104026020016040519081016040528092919081815260200182805461267c9061372c565b80156126c95780601f1061269e576101008083540402835291602001916126c9565b820191906000526020600020905b8154815290600101906020018083116126ac57829003601f168201915b505050505081526020016002820180546126e29061372c565b80601f016020809104026020016040519081016040528092919081815260200182805461270e9061372c565b801561275b5780601f106127305761010080835404028352916020019161275b565b820191906000526020600020905b81548152906001019060200180831161273e57829003601f168201915b505050505081526020016003820180546127749061372c565b80601f01602080910402602001604051908101604052809291908181526020018280546127a09061372c565b80156127ed5780601f106127c2576101008083540402835291602001916127ed565b820191906000526020600020905b8154815290600101906020018083116127d057829003601f168201915b505050505081526020016004820180546128069061372c565b80601f01602080910402602001604051908101604052809291908181526020018280546128329061372c565b801561287f5780601f106128545761010080835404028352916020019161287f565b820191906000526020600020905b81548152906001019060200180831161286257829003601f168201915b5050505050815260200160058201805480602002602001604051908101604052809291908181526020016000905b828210156129595783829060005260206000200180546128cc9061372c565b80601f01602080910402602001604051908101604052809291908181526020018280546128f89061372c565b80156129455780601f1061291a57610100808354040283529160200191612945565b820191906000526020600020905b81548152906001019060200180831161292857829003601f168201915b5050505050815260200190600101906128ad565b505050915250909392505050565b6129a76040518060e00160405280600081526020016060815260200160008152602001600081526020016060815260200160608152602001606081525090565b600582815481106129ba576129ba613877565b90600052602060002090600702016040518060e0016040529081600082015481526020016001820180546129ed9061372c565b80601f0160208091040260200160405190810160405280929190818152602001828054612a199061372c565b8015612a665780601f10612a3b57610100808354040283529160200191612a66565b820191906000526020600020905b815481529060010190602001808311612a4957829003601f168201915b505050505081526020016002820154815260200160038201548152602001600482018054612a939061372c565b80601f0160208091040260200160405190810160405280929190818152602001828054612abf9061372c565b8015612b0c5780601f10612ae157610100808354040283529160200191612b0c565b820191906000526020600020905b815481529060010190602001808311612aef57829003601f168201915b5050505050815260200160058201805480602002602001604051908101604052809291908181526020016000905b82821015611e9b578382906000526020600020018054612b599061372c565b80601f0160208091040260200160405190810160405280929190818152602001828054612b859061372c565b8015612bd25780601f10612ba757610100808354040283529160200191612bd2565b820191906000526020600020905b815481529060010190602001808311612bb557829003601f168201915b505050505081526020019060010190612b3a565b828054828255906000526020600020908101928215612c2c579160200282015b82811115612c2c5782518290612c1c90826137b7565b5091602001919060010190612c06565b50612c38929150612c3c565b5090565b80821115612c38576000612c508282612c59565b50600101612c3c565b508054612c659061372c565b6000825580601f10612c75575050565b601f01602090049060005260206000209081019061243b91905b80821115612c385760008155600101612c8f565b600060208284031215612cb557600080fd5b5035919050565b6000815180845260005b81811015612ce257602081850181015186830182015201612cc6565b506000602082860101526020601f19601f83011685010191505092915050565b85815260a060208201526000612d1b60a0830187612cbc565b8281036040840152612d2d8187612cbc565b90508281036060840152612d418186612cbc565b90508281036080840152612d558185612cbc565b98975050505050505050565b634e487b7160e01b600052604160045260246000fd5b604051601f8201601f1916810167ffffffffffffffff81118282101715612da057612da0612d61565b604052919050565b600082601f830112612db957600080fd5b813567ffffffffffffffff811115612dd357612dd3612d61565b612de6601f8201601f1916602001612d77565b818152846020838601011115612dfb57600080fd5b816020850160208301376000918101602001919091529392505050565b600060208284031215612e2a57600080fd5b813567ffffffffffffffff811115612e4157600080fd5b612e4d84828501612da8565b949350505050565b60008282518085526020808601955060208260051b8401016020860160005b84811015612ea257601f19868403018952612e90838351612cbc565b98840198925090830190600101612e74565b5090979650505050505050565b805182526000602082015160c06020850152612ece60c0850182612cbc565b905060408301518482036040860152612ee78282612cbc565b91505060608301518482036060860152612f018282612cbc565b91505060808301518482036080860152612f1b8282612cbc565b91505060a083015184820360a0860152612f358282612e55565b95945050505050565b600060208083016020845280855180835260408601915060408160051b87010192506020870160005b82811015612f9557603f19888603018452612f83858351612eaf565b94509285019290850190600101612f67565b5092979650505050505050565b805182526000602082015160e06020850152612fc160e0850182612cbc565b905060408301518482036040860152612fda8282612cbc565b91505060608301518482036060860152612ff48282612cbc565b9150506080830151848203608086015261300e8282612cbc565b91505060a083015184820360a08601526130288282612e55565b91505060c083015184820360c0860152612f358282612cbc565b600060208083016020845280855180835260408601915060408160051b87010192506020870160005b82811015612f9557603f19888603018452613087858351612fa2565b9450928501929085019060010161306b565b600082601f8301126130aa57600080fd5b8135602067ffffffffffffffff808311156130c7576130c7612d61565b8260051b6130d6838201612d77565b93845285810183019383810190888611156130f057600080fd5b84880192505b85831015612d555782358481111561310e5760008081fd5b61311c8a87838c0101612da8565b83525091840191908401906130f6565b60008060008060008060c0878903121561314557600080fd5b86359550602087013567ffffffffffffffff8082111561316457600080fd5b6131708a838b01612da8565b9650604089013591508082111561318657600080fd5b6131928a838b01612da8565b955060608901359150808211156131a857600080fd5b6131b48a838b01612da8565b945060808901359150808211156131ca57600080fd5b6131d68a838b01612da8565b935060a08901359150808211156131ec57600080fd5b506131f989828a01613099565b9150509295509295509295565b6020815260006132196020830184612cbc565b9392505050565b600080600080600060a0868803121561323857600080fd5b853567ffffffffffffffff8082111561325057600080fd5b61325c89838a01612da8565b9650602088013591508082111561327257600080fd5b61327e89838a01612da8565b9550604088013591508082111561329457600080fd5b6132a089838a01612da8565b945060608801359150808211156132b657600080fd5b6132c289838a01612da8565b935060808801359150808211156132d857600080fd5b506132e588828901613099565b9150509295509295909350565b805182526000602082015160e0602085015261331160e0850182612cbc565b905060408301516040850152606083015160608501526080830151848203608086015261300e8282612cbc565b600060208083016020845280855180835260408601915060408160051b87010192506020870160005b82811015612f9557603f198886030184526133838583516132f2565b94509285019290850190600101613367565b60008060008060008060c087890312156133ae57600080fd5b863567ffffffffffffffff808211156133c657600080fd5b6133d28a838b01612da8565b9750602089013596506040890135955060608901359150808211156133f657600080fd5b6134028a838b01612da8565b9450608089013591508082111561341857600080fd5b6134248a838b01613099565b935060a089013591508082111561343a57600080fd5b506131f989828a01612da8565b600080600080600080600060e0888a03121561346257600080fd5b87359650602088013567ffffffffffffffff8082111561348157600080fd5b61348d8b838c01612da8565b975060408a01359150808211156134a357600080fd5b6134af8b838c01612da8565b965060608a01359150808211156134c557600080fd5b6134d18b838c01612da8565b955060808a01359150808211156134e757600080fd5b6134f38b838c01612da8565b945060a08a013591508082111561350957600080fd5b6135158b838c01613099565b935060c08a013591508082111561352b57600080fd5b506135388a828b01612da8565b91505092959891949750929550565b6020815260006132196020830184612fa2565b600080600080600080600060e0888a03121561357557600080fd5b87359650602088013567ffffffffffffffff8082111561359457600080fd5b6135a08b838c01612da8565b975060408a0135965060608a0135955060808a01359150808211156134e757600080fd5b86815260c0602082015260006135dd60c0830188612cbc565b82810360408401526135ef8188612cbc565b905082810360608401526136038187612cbc565b905082810360808401526136178186612cbc565b905082810360a084015261362b8185612cbc565b9998505050505050505050565b86815260c06020820152600061365160c0830188612cbc565b86604084015285606084015282810360808401526136178186612cbc565b60008060008060008060c0878903121561368857600080fd5b863567ffffffffffffffff808211156136a057600080fd5b6136ac8a838b01612da8565b975060208901359150808211156136c257600080fd5b6136ce8a838b01612da8565b965060408901359150808211156136e457600080fd5b6136f08a838b01612da8565b955060608901359150808211156133f657600080fd5b6020815260006132196020830184612eaf565b60208152600061321960208301846132f2565b600181811c9082168061374057607f821691505b60208210810361376057634e487b7160e01b600052602260045260246000fd5b50919050565b601f8211156137b2576000816000526020600020601f850160051c8101602086101561378f5750805b601f850160051c820191505b818110156137ae5782815560010161379b565b5050505b505050565b815167ffffffffffffffff8111156137d1576137d1612d61565b6137e5816137df845461372c565b84613766565b602080601f83116001811461381a57600084156138025750858301515b600019600386901b1c1916600185901b1785556137ae565b600085815260208120601f198616915b828110156138495788860151825594840194600190910190840161382a565b50858210156138675787850151600019600388901b60f8161c191681555b5050505050600190811b01905550565b634e487b7160e01b600052603260045260246000fd5b6000600182016138ad57634e487b7160e01b600052601160045260246000fd5b506001019056fea2646970667358221220e2d14277d1c2c99053f02782b7e0fa3b7a81f21efd867bed80dd69c5d6186f8064736f6c63430008180033516d5033665831483858535637786e5575586d7741614c61697a706277384e5237754a316248766131755a6e4268516d6265567232714439414a624453526339446258696456594c556f357779764d6e66536e4e376d5741513564666f7665722036206d6f6e746873206f662070726163746963616c20657870657269656e63652077697468206120676f6f64206b6e6f776c6564676520696e20626c6f636b636861696e20646576656c6f706d656e742e692068656c70207765623320636f6d6d756e69747920627920636f6e747269627574696e6720696e2074686520776562332073706163652e",
  "linkReferences": {},
  "deployedLinkReferences": {}
}